:020000040800F2
:1000000058070020CD010008B5050008F5030008D9
:10001000B10500087D020008630A00080000000026
:100020000000000000000000000000008106000841
:1000300081020008000000003D0600089507000846
:10004000E7010008E7010008E7010008E7010008F0
:10005000E7010008E7010008E7010008E7010008E0
:10006000E7010008E7010008E7010008E7010008D0
:10007000E7010008E7010008E7010008E7010008C0
:10008000E7010008E7010008E7010008E7010008B0
:10009000E7010008E7010008E7010008E7010008A0
:1000A000E7010008E7010008E7010008E701000890
:1000B000E7010008F9070008E7010008E701000868
:1000C000E7010008E7010008E7010008E701000870
:1000D000E70100087D090008E7010008E7010008C2
:1000E000E7010008E7010008E7010008E701000850
:1000F000E7010008E7010008E7010008E701000840
:10010000E7010008E7010008E7010008E70100082F
:10011000E7010008E7010008E7010008E70100081F
:10012000E7010008E7010008E7010008E70100080F
:1001300000F002F800F03AF80AA090E8000C8244BF
:100140008344AAF10107DA4501D100F02FF8AFF29C
:10015000090EBAE80F0013F0010F18BFFB1A43F0A5
:1001600001031847A4090000C4090000103A24BF85
:1001700078C878C1FAD8520724BF30C830C144BF0C
:1001800004680C607047000000230024002500264E
:10019000103A28BF78C1FBD8520728BF30C148BFEA
:1001A0000B6070471FB51FBD10B510BD00F033F8D0
:1001B0001146FFF7F7FF00F07BFC00F051F803B4A5
:1001C000FFF7F2FF03BC00F04EFC00000948804737
:1001D00009480047FEE7FEE7FEE7FEE7FEE7FEE729
:1001E000FEE7FEE7FEE7FEE704480549054A064B41
:1001F00070470000990700083101000858010020ED
:10020000580700205803002058030020704770470B
:10021000704770477047754600F02CF8AE460500F1
:100220006946534620F00700854618B020B5FFF711
:10023000DBFFBDE820404FF000064FF000074FF015
:1002400000084FF0000B21F00701AC46ACE8C009F4
:10025000ACE8C009ACE8C009ACE8C0098D467047FD
:1002600010B50446AFF300802046BDE81040FFF70C
:10027000A6BF000000487047F400002000BFFEE762
:1002800070472DE9F041024600250026002000239A
:100290000024002791F803C00CF00F0591F803C06B
:1002A0000CF0100CBCF1000F03D091F802C04CEA26
:1002B000050591F800C0BCF1000F31D01468002092
:1002C0002BE04FF0010C0CFA00F3B1F800C00CEA7F
:1002D00003069E4220D183004FF00F0C0CFA03F767
:1002E000BC4305FA03FC4CEA040491F803C0BCF1DA
:1002F000280F06D14FF0010C0CFA00FCC2F814C014
:100300000AE091F803C0BCF1480F05D14FF0010C91
:100310000CFA00FCC2F810C0401C0828D1D31460AD
:10032000B1F800C0BCF1FF0F34DD546800202EE0AE
:1003300000F1080C4FF0010808FA0CF3B1F800C006
:100340000CEA03069E4221D183004FF00F0C0CFAF9
:1003500003F7BC4305FA03FC4CEA040491F803C01C
:10036000BCF1280F05D100F1080C08FA0CF8C2F80E
:10037000148091F803C0BCF1480F07D100F1080CBC
:100380004FF0010808FA0CF8C2F81080401C082849
:10039000CED35460BDE8F0810246002093680B4044
:1003A0000BB1012000E000207047016170470000A0
:1003B0000548007830B1044801780020024A1070E6
:1003C000084670470020FCE71E00002010B50821F9
:1003D0000748FFF7E1FF08B9012010BD10210448CC
:1003E000FFF7DAFF08B90220F7E70020F5E7000081
:1003F0000018014000BFFEE710B500F05DF800F006
:1004000009F800F033FB40F2E731472000F006FA2C
:1004100010BD000008B50121442000F021F918208A
:10042000ADF8000048208DF8030069460648FFF744
:1004300028FF0120ADF8000028208DF80300694650
:100440000248FFF71EFF08BD0018014000080140E8
:1004500010B50F480078401C0D4908700846007818
:10046000142813D1002008700A4800780A4908703F
:10047000FFF7ACFF074908700846007830B9064816
:10048000007818B1044800780449087010BD0000D5
:100490002000002021000020220000201E0000205B
:1004A00001490870704700002500002001490870CC
:1004B000704700002400002008B50121482000F00A
:1004C000CFF82020ADF8000010208DF803000320A5
:1004D0008DF8020069460948FFF7D3FE202107483E
:1004E000FFF763FF2020ADF8000069460448FFF7DE
:1004F000C8FE20210248FFF758FF08BD000C01404C
:100500000018014024480088401C234908802348E3
:100510000088401C214908801F4800884FF4FA7168
:1005200090FBF1F201FB12001B4908801B48008878
:100530004FF47A7190FBF1F201FB12001749088029
:100540001748007810B9012016490860144800784F
:1005500001280AD110480088FA2803DA002011493E
:10056000086002E001200F4908600F48007810B9C8
:1005700001200E4908600C48007801280BD107487B
:100580000088B0F5FA7F03DA00200849086002E02D
:10059000012006490860704726000020280000203E
:1005A0002400002094812142250000209401234250
:1005B00000BFFEE77047000070B5002100230F2246
:1005C000C47804B3154C246804F4E064C4F5E06412
:1005D000210AC1F10403CA40447804FA03F1847883
:1005E0001440214309010E4C0678A155047804F00B
:1005F0001F050124AC4005786D11AD0005F1E02523
:10060000C5F8004109E0047804F01F050124AC405E
:10061000044D0678761145F8264070BD0CED00E0DB
:1006200000E400E080E100E002490143024A116079
:10063000704700000000FA050CED00E07047000074
:1006400029B1064AD2690243044BDA6104E0034A45
:10065000D2698243014BDA6170470000001002400A
:1006600029B1064A92690243044B9A6104E0034AA5
:1006700092698243014B9A6170470000001002406A
:10068000704710B500F002F810BD00000CB5002056
:10069000019000903348006840F480303149086090
:1006A00000BF3048006800F4003000900198401C02
:1006B0000190009818B90198B0F5A06FF1D12948C0
:1006C000006800F4003010B10120009001E000202B
:1006D00000900098012843D12348006840F01000A2
:1006E000214908600846006820F0030008600846B9
:1006F000006840F0020008601A48406819494860E4
:100700000846406848600846406840F48060486099
:100710000846406820F47C1048600846406840F471
:10072000E81048600846006840F08070086000BF2C
:100730000C48006800F000700028F9D009484068B3
:1007400020F00300074948600846406840F0020076
:10075000486000BF0348406800F00C000828F9D149
:100760000CBD00000010024000200240042808D107
:100770004FF0E021096941F004014FF0E0221161DE
:1007800007E04FF0E021096921F004014FF0E02279
:10079000116170477047000010B51348006840F0C1
:1007A00001001149086008464068104908400E4998
:1007B0004860084600680E4908400B490860084632
:1007C000006820F4802008600846406820F4FE009D
:1007D00048604FF41F008860FFF753FF4FF0006040
:1007E0000449086010BD0000001002400000FFF83E
:1007F000FFFFF6FE08ED00E010B50121064800F00D
:1008000050F8012807D10121034800F03BF8FFF719
:100810001FFEFFF777FE10BD000400407FB50546C0
:100820000C4601210220FFF70BFFADF80850ADF890
:1008300004400020ADF80600ADF80A0001A91048F8
:1008400000F04AF8012211460D4800F03BF84FF441
:10085000A060FFF7E9FE1D208DF8000002208DF852
:10086000010000208DF8020001208DF80300684689
:10087000FFF7A2FE0121024800F007F87FBD00004B
:1008800000040040CA430282704721B1028842F04E
:100890000102028004E002884FF6FE731A400280D3
:1008A000704730B50246002000230024158A05EA6F
:1008B0000103958905EA010413B10CB1012000E0A0
:1008C000002030BD1AB183890B43838102E0838904
:1008D0008B43838170470000002202881D4B9842A1
:1008E0000ED01D4B98420BD0B0F1804F08D01B4B5F
:1008F000984205D01A4B984202D01A4B984204D124
:100900004FF68F731A404B881A43174B984207D003
:10091000164B984204D04FF6FF431A40CB881A4337
:1009200002808B8883850B8803850A4B98420BD005
:10093000094B984208D00E4B984205D00D4B984277
:1009400002D00D4B984201D10B7A0386012383829A
:1009500070470000002C01400034014000040040BA
:1009600000080040000C004000100040001400404F
:1009700000400140004401400048014010B540F2F1
:1009800025511D4800F03EF810B31B4800F064F8F4
:10099000C4B21A48008800F40040C8B9174800885B
:1009A00000F4804060B10A2C03D000201349088075
:1009B00020E01248008840F400401049088019E007
:1009C0000D2C06D10D48008840F480400B4908806A
:1009D00010E00A480088C0F30D0009490C5407488C
:1009E0000088401C0549088008460088C72801DDAA
:1009F0000020088010BD0000003801401C000020CD
:100A00002C00002070B502460024002300250020A1
:100A100040F66A16B14200D100BFC1F3421501F0A1
:100A20001F03012606FA03F3012D02D196893340F4
:100A300006E0022D02D1168A334001E0968A334047
:100A40000C12012606FA04F41688344013B10CB1D6
:100A5000012000E0002070BD01468888C0F3080036
:100A6000704700BFFEE700BF7047000010B56FF091
:100A70000400FFF77BFE0A4800680A49B0FBF1F06A
:100A8000094908700846007800EB4001C1EBC0102E
:100A90004FF6FF7101EAC0000449088010BD000054
:100AA0000000002000127A00140000201600002030
:100AB00000250026FFF7A0FC25E0FFF779FC04469F
:100AC000012C02D0022C0CD105E00DB9012000E070
:100AD0000020054606E00EB9012000E00020064691
:100AE00000E000BF00BF1DB10120FFF7DFFC02E006
:100AF0000020FFF7DBFC1EB10120FFF7D1FC02E074
:100B00000020FFF7CDFCD8E7280B000800000020EC
:100B10002C0000006C010008540B00082C00002081
:100B20002C0700008801000800A24A040000000011
:100B3000000000000102030406070809000000008D
:100B400000000000000000010000000000000000A4
:040B500000000000A1
:04000005080001CD21
:00000001FF
